:100000000C942A000C943F000C943F000C943F0089
:100010000C943F000C943F000C943F000C943F0064
:100020000C943F000C943F000C943F000C943F0054
:100030000C943F000C943F000C943F000C943F0044
:100040000C943F000C943F000C943F000C943F0034
:100050000C943F0011241FBECFE5D8E0DEBFCDBF1A
:1000600010E0A0E6B0E0E4E0F1E002C005900D92FF
:10007000AE36B107D9F70E946E000C9480000C9444
:10008000000010B880B984EA86BF06B607FEFDCF2F
:1000900081B1887F8830E1F70895982F24E893B9DB
:1000A00026BF06B607FEFDCF81B1887F8831B9F73C
:1000B0000895AC0120E094E80AC0E3B996BF06B603
:1000C00007FEFDCF81B1887F883239F42F5FFA01B6
:1000D000E20FF11DE081EE2381F7089580EC0E948C
:1000E000410080E20E944D0080E690E00E945900AD
:1000F00084E986BF80E090E0089584E986BF089592
:04010000F894FFCFA1
:0E01040048656C6C6F20576F726C64210000B0
:00000001FF
